:100000000C941E040C9430040C9430040C945C0486
:100010000C9420120C9430040C9430040C94300492
:100020000C9430040C9430040C9430040C94DB1BBE
:100030000C9430040C9430040C9430040C94300470
:100040000C946E1B0C9430040C94CD1F0C942B203C
:100050000C9430040C9430040C9430040C94300450
:100060000C9430040C94300428302E30313034306D
:10007000393041304930BC30BC30BC305130543064
:100080005D306630BC30BC30BC30BC30BC30BC30C5
:100090006E30783084308E3091309A30A330A93071
:1000A0003409461146113E094B09580965094611A4
:1000B000690946117709461181098B09B60946116C
:1000C000461146119509A009AB09121023104210E0
:1000D0002310461059104C1052106F1075108410D8
:1000E0009710B010BA10C510CF10D721DA21DF2138
:1000F000E221E521E821EB21EE21F121F421F72194
:1001000003220322032203220322032203220322C7
:10011000FD21FA210022084AD73B3BCE016E84BC68
:10012000BFFDC12F3D6C74319ABD56833DDA3D0051
:10013000C77F11BED9E4BB4C3E916BAAAABE00009A
:1001400000803F05A84CCDB2D44EB93836A9020C78
:1001500050B9918688083CA6AAAA2ABE0000008051
:100160003F000D0A4772626C20302E396A205B27EF
:10017000242720666F722068656C705D0D0A000D83
:100180000A003D00244E005D0D0A005B302E396AE6
:100190002E32303136303732363A005D0D0A005B90
:1001A000544C4F3A005D0D0A002C005B4739323A3F
:1001B000005D0D0A002C003A003330003238005B3D
:1001C00047005D0D0A002053002046002054002007
:1001D0004D3800204D3900204D3500204D34002091
:1001E0004D3300204D3200204D3100204D30002095
:1001F0004739340020473933002047393100204740
:10020000393000204732300020473231002047315A
:100210003900204731380020473137002047004758
:1002200033382E004738300047330047320047311B
:10023000004730005B00242420287669657720473A
:1002400072626C2073657474696E6773290D0A2479
:1002500023202876696577202320706172616D659F
:1002600074657273290D0A24472028766965772002
:10027000706172736572207374617465290D0A244C
:1002800049202876696577206275696C6420696EFB
:10029000666F290D0A244E202876696577207374CD
:1002A000617274757020626C6F636B73290D0A2420
:1002B000783D76616C75652028736176652047729C
:1002C000626C2073657474696E67290D0A244E7818
:1002D0003D6C696E65202873617665207374617268
:1002E00074757020626C6F636B290D0A244320289B
:1002F000636865636B2067636F6465206D6F646519
:10030000290D0A245820286B696C6C20616C61727D
:100310006D206C6F636B290D0A2448202872756E5E
:1003200020686F6D696E67206379636C65290D0ABB
:100330007E20286379636C65207374617274290D63
:100340000A2120286665656420686F6C64290D0A9F
:100350003F202863757272656E74207374617475C2
:1003600073290D0A6374726C2D7820287265736589
:1003700074204772626C290D0A005D0D0A005265F7
:1003800073746F72696E672064656661756C7473EF
:100390000050676D20456E6400436865636B2044C0
:1003A0006F6F720044697361626C656400456E61D1
:1003B000626C65640043617574696F6E3A20556EB6
:1003C0006C6F636B656400272448277C27245827BB
:1003D00020746F20756E6C6F636B0052657365746B
:1003E00020746F20636F6E74696E7565005B006FBB
:1003F0006B0D0A000D0A00486F6D696E672066611B
:10040000696C0050726F6265206661696C004162C0
:100410006F727420647572696E67206379636C65AE
:1004200000536F6674206C696D6974004861726472
:10043000206C696D697400414C41524D3A20003E78
:100440000D0A002C4C696D3A002C52583A002C428F
:1004500075663A002C002C57506F733A002C002C14
:100460004D506F733A003C446F6F72003C436865B7
:10047000636B003C416C61726D003C486F6D6500C0
:100480003C486F6C64003C52756E003C49646C657E
:1004900000290D0A00206D61782074726176656C08
:1004A0002C206D6D0020616363656C2C206D6D2FB9
:1004B0007365635E3200206D617820726174652C13
:1004C000206D6D2F6D696E002C20737465702F6D1B
:1004D0006D007A00790078002028003D002400207B
:1004E00028686F6D696E672070756C6C2D6F66661D
:1004F0002C206D6D290D0A002028686F6D696E67CC
:10050000206465626F756E63652C206D7365632969
:100510000D0A2432373D002028686F6D696E672010
:100520007365656B2C206D6D2F6D696E290D0A2426
:1005300032363D002028686F6D696E6720666565FC
:10054000642C206D6D2F6D696E290D0A2432353DA6
:1005500000290D0A2432343D002028686F6D696E31
:10056000672064697220696E76657274206D6173AC
:100570006B3A002028686F6D696E67206379636C41
:10058000652C20626F6F6C290D0A2432333D0020E8
:100590002868617264206C696D6974732C20626FC5
:1005A0006F6C290D0A2432323D002028736F667467
:1005B000206C696D6974732C20626F6F6C290D0A51
:1005C0002432313D0020287265706F727420696E8C
:1005D000636865732C20626F6F6C290D0A243230BA
:1005E0003D00202861726320746F6C6572616E63D8
:1005F000652C206D6D290D0A2431333D0020286AB9
:10060000756E6374696F6E20646576696174696F75
:100610006E2C206D6D290D0A2431323D00290D0A02
:100620002431313D00202873746174757320726524
:10063000706F7274206D61736B3A00202870726F56
:1006400062652070696E20696E766572742C206216
:100650006F6F6C290D0A2431303D0020286C696DC4
:1006600069742070696E7320696E766572742C20CF
:10067000626F6F6C290D0A24363D00202873746563
:100680007020656E61626C6520696E766572742C8F
:1006900020626F6F6C290D0A24353D00290D0A2454
:1006A000343D00202864697220706F727420696E76
:1006B00076657274206D61736B3A00290D0A2433DC
:1006C0003D0020287374657020706F727420696E0D
:1006D00076657274206D61736B3A002028737465BF
:1006E000702069646C652064656C61792C206D7381
:1006F0006563290D0A24323D00202873746570203B
:1007000070756C73652C2075736563290D0A24312F
:100710003D0024303D005D0D0A003A002C005B5086
:1007200052423A000D0A00496E76616C6964206796
:10073000636F64652049443A00556E646566696E6E
:1007400065642066656564207261746500556E732A
:100750007570706F7274656420636F6D6D616E6427
:10076000004D6F64616C2067726F75702076696FE1
:100770006C6174696F6E004C696E65206F7665728E
:10078000666C6F7700486F6D696E67206E6F7420BE
:10079000656E61626C656400416C61726D206C6FA6
:1007A000636B004E6F742069646C65004545505260
:1007B0004F4D2072656164206661696C2E2055730F
:1007C000696E672064656661756C74730056616C50
:1007D0007565203C20332075736563005365747420
:1007E000696E672064697361626C65640056616C50
:1007F0007565203C203000496E76616C6964207319
:10080000746174656D656E7400426164206E756D0F
:1008100062657220666F726D617400457870656301
:1008200074656420636F6D6D616E64206C657474B3
:100830006572006572726F723A20000011241FBE4B
:10084000CFEFD8E0DEBFCDBF26E0A0E0B1E001C031
:100850001D92AC3CB207E1F70E94CB2B0C94333ACB
:100860000C940000EBE6F0E08081897E8083E8E66E
:10087000F0E080818E7F8083089584B1897E84B981
:1008800085B1866185B98091240683FF0BC0809174
:100890006B00866180936B0080916800816080931B
:1008A000680008950C943204F999FECF92BD81BD81
:1008B00081E08FBB80B508951F920F920FB60F9203
:1008C00011242F933F934F935F936F937F938F9355
:1008D0009F93AF93BF93EF93FF938091370681303F
:1008E00071F08091350681110AC00E94EC2A9FB7F1
:1008F000F894809135068360809335069FBFFF9101
:10090000EF91BF91AF919F918F917F916F915F9187
:100910004F913F912F910F900FBE0F901F90189500
:1009200093B196718091240686FD02C086E19827D6
:10093000992349F091FB882780F992FD826090719C
:1009400019F08460089580E008952F923F924F92AD
:100950005F926F927F928F929F92AF92BF92CF924F
:10096000DF92EF92FF920F931F93CF93DF93CDB758
:10097000DEB768970FB6F894DEBF0FBECDBF90917B
:1009800036069111A9C1782E27EE35E0398B288BD8
:100990005901CE010D964C0100E010E0C12CD12C84
:1009A0007601A72DB0E0BD8BAC8B802F002321F00A
:1009B000013021F090E103C094E001C098E0F4011F
:1009C00091934F012C893D8902C0359527958A95D1
:1009D000E2F720FF1BC020E030E040EC5FEBD501E8
:1009E00094966D917D918D919C9197970E94DC38A2
:1009F000362E472E582E692EA70196010E947A3670
:100A000087FD04C0C32CD42CE52CF62C0F5F1F4FA0
:100A1000B4E0AB0EB11C0330110539F680902A0604
:100A200090902B06A0902C06B0902D0684E0682EA6
:100A300001E06AE376E0CE0101960E94E411809124
:100A40002506E82FF0E0FF8BEE8BFE01319626E3C2
:100A500036E03B8B2A8B1901CE010D962C0180E0EC
:100A600090E0188E10E0B701A60170582C893D89DE
:100A7000082E02C0359527950A94E2F720FF25C07D
:100A8000A88DAF5FA88FD10114961D921D921D9263
:100A90001C9217972E893F89082E02C035952795FD
:100AA0000A94E2F720FF03C0002319F007C00023D7
:100AB00029F0C082D182E282F38204C04083518354
:100AC00062837383D2012C91122B0196BFEF4B1AD4
:100AD0005B0A349624E0220E311C8330910531F6F6
:100AE000388D632F70E080E090E00E942C370E94E8
:100AF0007B399B01AC01C501B4010E94DC386B015C
:100B00007C01109353060E94322620E0B701A60113
:100B1000CE0101960E94A1270E947B120E94111E05
:100B20000023E9F00E949004FE013D9620E030E0B1
:100B300090E06191462F412359F0AC01022E02C092
:100B4000559547950A94E2F740FF02C06095162339
:100B50002F5F3F4F2330310561F7109353060E94FA
:100B60007B128091E5058473C1F08091E505807367
:100B700029F00E94EC2A0E94C123AEC00111A7C037
:100B80000E9490048721A9F79FB7F8948091E5050A
:100B90008B7F8093E5059FBF04C0812F8C7109F086
:100BA000BFCF0E94AF1B0E94432680912E069091DA
:100BB0002F060E94E12A81E00827C9F020E030E0FA
:100BC00040EA50E46091300670913106809132061F
:100BD000909133060E94DC386B017C0180902606E0
:100BE00090902706A0902806B090290610C0C090CB
:100BF0003006D0903106E0903206F09033068090B7
:100C00002A0690902B06A0902C06B0902D066A9490
:100C100061100FCFE0902506F12C80903006909067
:100C20003106A0903206B09033062401350177FAE0
:100C3000709477F8709400E010E08C899D89002E04
:100C400002C0959587950A94E2F780FF2CC0C701F2
:100C5000002E02C0959587950A94E2F7A889B98974
:100C600080FF11C094962D913D914D915C91979785
:100C7000C501B4010E948535E889F9892081318157
:100C80004281538106C02D913D914D915C91C301EC
:100C9000B2010E94DC380E94A938EA89FB8964838A
:100CA0007583868397830F5F1F4F2A893B892C5F4B
:100CB0003F4F3B8B2A8B888999890496998B888B27
:100CC0000330110509F0B9CF0E94322605C080918A
:100CD000E50582FF59CF4DCF68960FB6F894DEBF79
:100CE0000FBECDBFDF91CF911F910F91FF90EF907D
:100CF000DF90CF90BF90AF909F908F907F906F903C
:100D00005F904F903F902F9008959F92AF92BF9227
:100D1000CF92DF92EF92FF920F931F93CF93DF93C7
:100D20005B018A017C01E40EF51EEC01912C6B0144
:100D3000C81AD90AC6018C0F9D1FCE15DF0589F090
:100D40000E945404911008C0292D990C330B232FB5
:100D5000221F2227221F01C021E0982E920E899384
:100D6000E9CFC501800F911F0E94540421E030E0BB
:100D7000981611F020E030E0C901DF91CF911F916A
:100D80000F91FF90EF90DF90CF90BF90AF909F902A
:100D90000895F894F999FECF92BD81BD81E08FBB93
:100DA00080B58627482F082E000C550B262F30E0E3
:100DB00024233523232B39F06F3F19F060BD84E0E5
:100DC00006C084E104C0882321F060BD84E28FBBAB
:100DD000F99A789408959F92AF92BF92CF92DF9242
:100DE000EF92FF920F931F93CF93DF935C018A01E1
:100DF0007B01E40EF51EEB01912C6C01C61AD70A9B
:100E0000CE018C0D9D1DCE15DF0589F0911008C017
:100E1000292D990C330B232F221F2227221F01C0BB
:100E200021E06991922E960E0E94C906E9CF692DA4
:100E3000C501800F911FDF91CF911F910F91FF90FE
:100E4000EF90DF90CF90BF90AF909F900C94C90629
:100E5000439808952F923F924F925F926F927F92A4
:100E60008F929F92AF92BF92CF92DF92EF92FF92BA
:100E70000F931F93CF93DF93CDB7DEB7E5970FB6F0
:100E8000F894DEBF0FBECDBF89E3E4E5F6E0DF01F5
:100E90001D928A95E9F78AE0EDE8F6E0A5E5B6E06F
:100EA00001900D928A95E1F71D8E212C312CA12CF9
:100EB000B12C19A200E01E8E44244394512C37E03B
:100EC000632E772473948D8DE82FF0E0EB56FA4F64
:100ED0009080992009F46DC29FEB990D9A3110F022
:100EE0000C9438118F5F8D8FBE01675E7F4FCE01EE
:100EF0004D960E94172B882311F40C943A11C98C3B
:100F0000DA8CEB8CFC8CC701B6010E94BF390E94C1
:100F1000FD36162F70E080E090E00E942E379B0196
:100F2000AC01C701B6010E94843520E030E048ECF6
:100F300052E40E94DC380E9449390E94FD36B7E431
:100F40009B1629F0EDE49E1609F435C17CC11832D8
:100F500009F406C1E8F4143160F4113108F0ABC0B3
:100F6000143009F44BC008F461C01A30D9F10C9464
:100F700046111C31B9F128F4163108F4CBC00C9499
:100F800046111E3179F1163209F450C00C94461105
:100F90001D3309F4DFC0A8F4153309F444C040F44C
:100FA0001B3209F4C0C0113309F4BDC00C944611C2
:100FB0001C3310F00C944611165310935B0689E015
:100FC000D2C01C3540F41A3508F084C0103509F43D
:100FD0006EC00C9446111C3529F01F3508F491C0E1
:100FE0000C9446116115710511F00C945811FE8D89
:100FF000FF2311F40C9465110C943C11709254066B
:101000000AC01F3150F41A3009F0B1C021E02E8F10
:1010100082E08093540680E0A6C0153311F00C9452
:101020007D11F1E0FE8F60925406F5CF9E8D9111F7
:101030000C943C11A2E0AE8F123089F028F41123F9
:1010400059F0113081F08EC0163281F0103579F1EF
:10105000133009F087C007C01092550683C0BE8DBB
:10106000B09355067FC0109355067CC06E31710554
:10107000A9F048F46431710511F00C944611E4E0D4
:10108000E093550612C06832710561F06233710554
:1010900011F00C9446116092550607C0F5E0F093EC
:1010A000550603C026E02093550681E074C038E061
:1010B0003093550657C0123129F0133139F0109290
:1010C000590602C07092590682E04DC082E08093BA
:1010D000590649C06115710549F41A3519F4109281
:1010E000580602C07092580683E055C06A307105F8
:1010F00011F00C9446111A3511F40C94461184E049
:101100004AC01D3519F47092560602C01092560658
:1011100085E029C0143119F47092570602C010926C
:10112000570686E020C08E8D81110C943C1111333E
:1011300031F410925A0688E093E09E8F2CC06A30FA
:10114000710511F00C94461170925A0688E0A3E0E4
:10115000AE8F21C0672B11F00C9446118AE01BC0A2
:1011600087E001C081E0672BB1F00C9463111C3162
:1011700011F00C94991131E03E8F6115710511F455
:101180000C947B116A30710511F00C94461194E0B7
:101190009093540680E0F20102C0EE0FFF1F8A9583
:1011A000E2F7CF019F012A213B21232B09F448C0FC
:1011B00085E10C94AB11672B11F00C946311163080
:1011C00018F4133058F017C0183010F40C9446116E
:1011D0001A3000F11E3159F00C944611123039F0DA
:1011E0001E3129F0111120C070925C061DC082E0F2
:1011F00080935C0619C0143029F0153039F07092D4
:101200005E0606C082E080935E0602C010925E0613
:101210008CE00BC0193021F082E080935D0602C0A3
:1012200010925D068DE001C08BE0920102C0220F9A
:10123000331F8A95E2F7C901950128233923B5CFD9
:10124000A82AB92A40CE892D990C990BAA0BBB0B61
:10125000FC01E654F109E531F10510F00C9446115A
:10126000E05BFF4F0C94133AC0925F06D092600689
:10127000E0926106F092620680E079C0C092630657
:10128000D0926406E0926506F092660639A131605C
:1012900039A381E06CC0C0926706D0926806E092E4
:1012A0006906F0926A0689A1826089A382E05FC024
:1012B000C0926B06D0926C06E0926D06F0926E06BC
:1012C00099A1946099A383E052C010936F0684E0C3
:1012D0004EC0C701B6010E94F63660937006709347
:1012E0007106809372069093730685E040C0C092A9
:1012F0007406D0927506E0927606F092770686E044
:1013000036C0C0927806D0927906E0927A06F092C2
:101310007B0687E02CC0C0927C06D0927D06E092CE
:101320007E06F0927F0688E022C0C0928106D092AD
:101330008206E0928306F092840601608AE017C07C
:10134000C0928506D0928606E0928706F0928806C3
:1013500002608BE00CC0C0928906D0928A06E092AF
:101360008B06F0928C0604608CE001C089E042019B
:10137000082E02C0880C991C0A94E2F794012221DD
:101380003321232B09F07AC7A1E6B3E002C0B5955B
:10139000A7958A95E2F7A0FF09C020E030E0A901F7
:1013A000C701B6010E947A3687FD6AC72828392806
:1013B0008ACD002329F0BE8DB11102C0E2E0EE8F8C
:1013C00025FE0EC08091700690917106A091720664
:1013D000B091730680389649A849B1050CF052C700
:1013E00080915606813031F42E8D2230A1F520FEF9
:1013F00053C731C080918E0681112DC020FE1BC0C5
:1014000080915706813039F523E333E34BEC51E407
:1014100060915F067091600680916106909162060E
:101420000E94DC3860935F067093600680936106CB
:101430009093620610C080919B0690919C06A091AB
:101440009D06B0919E0680935F0690936006A093E0
:101450006106B093620630FC10C0809197069091AF
:101460009806A0919906B0919A0680937C06909375
:101470007D06A0937E06B0937F068091540681304E
:1014800031F426FC02C08CE166C7E89426F880910E
:101490005906882371F0813031F431E03DA718A658
:1014A00082E08FA30BC01DA692E098A7A1E0AFA396
:1014B00005C0B2E0BDA7E1E0E8A71FA280915706F2
:1014C000813021F0FE8DF330B1F52EC094E5C92EA8
:1014D00096E0D92EE12CF12C802E912CC4010E2CFB
:1014E00002C0959587950A94E2F780FF12C023E326
:1014F00033E34BEC51E4D6019D966D917D918D9136
:101500009C91D0970E94DC38F60165A776A787A743
:1015100090ABFFEFEF1AFF0A24E0C20ED11C33E0BC
:10152000E316F104D9F6CECF80915A06813019F432
:10153000043009F0A9C68CE0E0EBF6E0DE011D9670
:1015400001900D928A95E1F7B1FC08C01091540604
:101550001230B9F0183009F4B4C01FC180915B0695
:10156000873010F08DE1F7C690919306891771F3DB
:10157000BE01635F7F4F0E94A81E882309F496C6B0
:10158000E5CF011102C08AE1E6C6C1018075992745
:10159000892B09F478CF609174067091750680915B
:1015A0007606909177060E94BF390E94FD3667301B
:1015B000C8F680916F06843129F0823009F066C642
:1015C00027FC64C68FEA2822662319F061506F8FCA
:1015D00003C090915B069F8FBE016F5F7F4F8F8D21
:1015E0000E94A81E882309F461C610916F064090DE
:1015F000C8065090C9066090CA067090CB06B4E544
:10160000AB2EB6E0BB2EDE0111967D018DE8882E53
:1016100086E0982EC12CD12CE02FF0E0FEA3EDA3A4
:101620008DA19EA10C2C02C0959587950A94E2F796
:1016300080FF35C0143149F5D4019F962D913D911D
:101640004D915C91D29757966D917D918D919C9122
:101650005A970E948435F50125A536A547A550A9BE
:101660000E948435D7016D937D938D939C9313973E
:10167000B2E0CB1214C0A30192010E948435F7019D
:1016800060837183828393830AC0F50185A596A543
:10169000A7A5B0A9F70180839183A283B383FFEF4D
:1016A000CF1ADF0A24E0A20EB11C34E0E30EF11CD5
:1016B00084E0880E911C93E0C916D10409F0B0CFE4
:1016C00021C1002309F45FCF4090C8065090C9069D
:1016D0006090CA067090CB06FDE8AF2EF6E0BF2EF4
:1016E0004E01ADE08A0E911CA4E5EA2EA6E0FA2E8A
:1016F000C12CD12CE02FF0E0F8A3EF8F8F8D98A1B3
:101700000C2C02C0959587950A94E2F780FF29C0BA
:10171000D4012D913D914D915C91F5016789708DBA
:10172000818D928D0E948435D7019D962D913D919A
:101730004D915C91D0970E948435F70165A776A7FB
:1017400087A790ABF2E0CF1216C0A30192010E94CE
:101750008435D7019D966D937D938D939C93D097FF
:101760000AC0F50187A590A9A1A9B2A9F70185A78B
:1017700096A7A7A7B0ABFFEFCF1ADF0A24E0A20E0F
:10178000B11C34E0830E911C84E0E80EF11C93E060
:10179000C916D10409F0B2CFB4C0AE8DA33009F49C
:1017A0008BC0002309F4A3C0B0915806BF8F4090AE
:1017B000C8065090C9066090CA067090CB067DE8B6
:1017C000A72E76E0B72EE4E5EE2EE6E0FE2E4E01E3
:1017D000EDE08E0E911CC12CD12C202F30E03EA3C9
:1017E0002DA38DA19EA10C2C02C0959587950A94DE
:1017F000E2F780FD0BC0F5018789908DA18DB28D38
:10180000F70185A796A7A7A7B0AB44C0173009F486
:1018100041C0FF8DF1112BC0D5019F962D913D91B7
:101820004D915C91D297F4016081718182819381A5
:101830000E948535D7019D962D913D914D915C91EA
:10184000D0970E948535F70165A776A787A790AB4B
:10185000F2E0CF121FC0A30192010E948535D7018B
:101860009D966D937D938D939C93D09713C0F501B6
:101870002789308D418D528DD7019D966D917D9137
:101880008D919C91D0970E948535F70165A776A729
:1018900087A790ABFFEFCF1ADF0A24E0A20EB11C9E
:1018A00034E0E30EF11C84E0880E911C93E0C9162D
:1018B000D10409F096CF45C5153061F01730E1F03D
:1018C0001330F9F4011101C01E8EBE016F5F7F4F0E
:1018D00086E007C0011101C01E8EBE016F5F7F4F01
:1018E00087E00E94A81E882309F4E0C40AC01530CE
:1018F00099F3173009F021C580915506823008F020
:10190000C7C41F8EA0915506ADA3A83041F4002393
:1019100009F443C2BE8DB13009F0BCC446C2EE8D9D
:10192000E23009F03AC2FDA1FF23E9F020E030E007
:10193000A90160915F0670916006809161069091A7
:1019400062060E947A36882309F4A6C42DA12430A9
:1019500028F4223060F4213031F027C23DA1383024
:1019600008F413C222C2002309F41AC21EC20023C3
:1019700009F409CE9FA1892F90E09FA78EA7B8A553
:10198000AB2FB0E0B9ABA8AB81E090E07C010FA039
:1019900002C0EE0CFF1C0A94E2F708A402C0880FF4
:1019A000991F0A94E2F7E82AF92A10E00E211F2174
:1019B000012B09F473C48EA59FA5880F991F880F6A
:1019C000991FFC01EC5AF94FDC01A357B94F579608
:1019D0002D913D914D915C915A9765A576A587A56E
:1019E00090A90E9484354B015C0188A999A9880FB0
:1019F000991F880F991FFC01EC5AF94FDC01A3577E
:101A0000B94F57962D913D914D915C915A9765A58F
:101A100076A587A590A90E94843569A77AA78BA788
:101A20009CA781010078112727FEDEC0E89427F8E3
:101A30000E94D031882311F081E28DC48091570635
:101A40008130B1F423E333E34BEC51E46091780649
:101A50007091790680917A0690917B060E94DC381D
:101A6000609378067093790680937A0690937B064C
:101A7000409078065090790660907A0670907B06C8
:101A8000A5019401C501B4010E94DC3869A37AA3C1
:101A90008BA39CA329A53AA54BA55CA5CA01B901B6
:101AA0000E94DC386AAB7BAB8CAB9DAB20E030E0B6
:101AB00040E850E4C301B2010E94DC38A301920166
:101AC0000E94DC3829A13AA14BA15CA10E94843577
:101AD0002AA93BA94CA95DA90E9484356B017C0110
:101AE00020E030E0A9010E947A3687FDD9C3C70102
:101AF000B6010E947B396B017C012AA93BA94CA944
:101B00005DA969A17AA18BA19CA10E9485350E9443
:101B10007B399B01AC01C701B60190580E94843605
:101B20006B017C01EDA1E33021F4F7FAF094F7F8B2
:101B3000F09420E030E0A901C301B2010E947A369E
:101B400087FF0FC0F7FAF094F7F8F094D301C201C1
:101B5000B0588093780690937906A0937A06B09354
:101B60007B060EA51FA5000F111F000F111F085A9D
:101B7000194FA701960169A57AA58BA59CA50E947E
:101B8000DC389B01AC01C501B4010E94843520E022
:101B900030E040E05FE30E94DC38D8011B966D9393
:101BA0007D938D939C931E9708A919A9000F111F6F
:101BB000000F111F085A194FA7019601C501B40162
:101BC0000E94DC3829A53AA54BA55CA50E94853565
:101BD00020E030E040E05FE30E94DC38F8016387FA
:101BE000748785879687E1C0F9A1CF2ED12CEC2090
:101BF000FD20EF2809F456C321EF222280915706D9
:101C0000813009F47DC0EEA5FFA5EE0FFF1FEE0F9A
:101C1000FF1FE85AF94FC384D484E584F684A701F2
:101C20009601C501B4010E9484352B013C01E8A94D
:101C3000F9A9EE0FFF1FEE0FFF1FE85AF94F83853A
:101C40009485A585B68589A39AA3ABA3BCA39C0163
:101C5000AD0169A57AA58BA59CA50E9484354B0191
:101C60005C01A3019201C301B2010E94DC382B0187
:101C70003C01A5019401C501B4010E94DC389B011F
:101C8000AC01C301B2010E9485350E947B394B0132
:101C90005C01A7019601C701B6010E94DC386B0107
:101CA0007C0129A13AA14BA15CA1CA01B9010E9402
:101CB000DC389B01AC01C701B6010E9485350E944A
:101CC0007B396B017C016093780670937906809371
:101CD0007A0690937B069B01AC01C501B4010E947A
:101CE00084354B015C01E894B7F82AE037ED43EA0C
:101CF0005BE3C501B4010E949C3818164CF155C035
:101D000084E5E82E86E0F82EC601002E02C09595E7
:101D100087950A94E2F780FF12C023E333E34BEC8C
:101D200051E4D7011F966D917D918D919C915297B1
:101D30000E94DC38F7016787708B818B928B0F5F75
:101D40001F4FF4E0EF0EF11C03301105E9F65BCFF5
:101D500020E030E040E05FE3C501B4010E949C3820
:101D600018160CF469CE2FE632E143E85AE3C701B6
:101D7000B6010E94DC389B01AC01C501B4010E9490
:101D80009C3818160CF458CE10C0002309F4FBCB75
:101D90000E94D031811150CE08C02E8D211105C076
:101DA000C1018E7D9C7F1E8E03C0C1018E7D907E01
:101DB000892B09F079C28091700690917106A091EB
:101DC0007206B09173068093A0069093A106A0932B
:101DD000A206B093A3068091560680938E0680914A
:101DE0005F0690916006A0916106B09162068093B3
:101DF0009B0690939C06A0939D06B0939E06C09070
:101E00007C06D0907D06E0907E06F0907F06A701CC
:101E1000960160919706709198068091990690912D
:101E20009A060E947A368823F9F0109196061123BB
:101E300059F080913706823039F00E940631B7019F
:101E4000A601812F0E94371E80917C0690917D060D
:101E5000A0917E06B0917F06809397069093980696
:101E6000A0939906B0939A068091800680939F066E
:101E700010915E06809196068117B9F08091370621
:101E8000823079F0C0909706D0909806E09099063D
:101E9000F0909A060E940631B701A601812F0E9498
:101EA000371E80915E068093960610915D068091A4
:101EB0009506811781F080913706823041F00E94AB
:101EC0000631123011F4439A02C00E942807809113
:101ED0005D068093950680915406813069F080916B
:101EE0005906809391068091570680938F063E8D08
:101EF000333009F074C054C080913706823079F3D2
:101F00008090740690907506A0907606B090770643
:101F100020E030E040EA51E4C501B4010E94DC3821
:101F20000E9469370E94FD366B017C010E940631D8
:101F300020E030E04AE754E4C501B4010E94DC38F7
:101F40004B015C0182E38C9DB0018D9D700D1124CD
:101F500080E090E00E942C379B01AC01C501B401E8
:101F60000E9484350E9469370E94FD36CB010E9491
:101F7000E12AC114D10409F4B2CF0E94C12381E047
:101F8000C81AD108809136068111A9CF9FEFA0E72A
:101F9000B2E09150A040B040E1F700C00000E9CFAE
:101FA00080915A0680939206813089F48091890647
:101FB00090918A06A0918B06B0918C068093C806FA
:101FC0009093C906A093CA06B093CB0608C010929E
:101FD000C8061092C9061092CA061092CB068091CC
:101FE0005B0690919306981759F0809393068CE0C6
:101FF000FE013D96A0EBB6E001900D928A95E1F7C7
:102000008091580680939006E09154068E2F90E0C0
:10201000FC013297E830F10508F04BC0EB59FF4F57
:102020000C94133ABE016F5F7F4F8F8D0E949F1EED
:1020300080919306EF8DE8133CC08CE0FE01319651
:10204000A0EBB6E01AC0FE8DFF2349F020E040E08F
:1020500050E060E87FEB81E896E00E94233120E0C9
:1020600040E050E060E87FEBCE0101960E94233112
:102070008CE0FE013196A4EAB6E001900D928A95BB
:10208000E1F717C064EA76E086E003C064EA76E030
:1020900087E00E949F1E0DC08CE0E1E8F6E0ACEB0B
:1020A000B6E0EBCF8CE0ECEBF6E0DF011D928A9519
:1020B000E9F7E0915506E0938D06E83009F486C013
:1020C000BE8DB23009F082C08E2F90E0883091052D
:1020D00008F073C0FC01E359FF4F0C94133A20E061
:1020E00040E050E060E87FEB0AC040919B065091D1
:1020F0009C0660919D0670919E0620918E0681E857
:1021000096E00E94233159C020919B0630919C0695
:1021100040919D0650919E066091780670917906D7
:1021200080917A0690917B068824839411C0209137
:102130009B0630919C0640919D0650919E066091B1
:1021400078067091790680917A0690917B06812CB1
:10215000ADA4C8A4EFA000918E060E94A7322DC0A6
:1021600060919B0670919C0680919D0690919E06C1
:1021700000E009C060919B0670919C0680919D06CD
:1021800090919E0601E020E014C060919B06709142
:102190009C0680919D0690919E0600E009C060918A
:1021A0009B0670919C0680919D0690919E0601E091
:1021B00021E040918E060E9411328CE0E1E8F6E0C9
:1021C000A4EAB6E001900D928A95E1F780915C0651
:1021D00080939406882309F4BEC00E940631909132
:1021E000940680913706913069F48230E9F19FB707
:1021F000F8948091E50588608093E5059FBF0E9473
:10220000C12332C091E090938D06109291061092F6
:10221000900610928E0610929306109296061092D7
:1022200095068230A9F0BE01635F7F4F80E00E9477
:10223000A81E8823D9F18CE0FE013D96A0EBB6E004
:1022400001900D928A95E1F70E94311E0E942807A5
:102250008DEE93E00E94B72181E993E00E94B721BF
:102260008AE793E00E94B7211092940680E073C041
:1022700081E071C082E06FC088E16DC089E16BC010
:1022800084E069C08BE167C085E265C084E163C01A
:102290008EE161C08FE15FC086E15DC080E25BC01E
:1022A00082E259C083E257C084E255C087E053C040
:1022B0001E3189F090F51A3011F40C9408081C3185
:1022C00011F40C94BD0887E146C01E3111F00C9446
:1022D0000108A1E0AE8F6115710541F06A3071050A
:1022E000A9F6E6E0E09354060C94CA08B5E0B09372
:1022F00054060C94CA0883E00CC01C35D1F421E0CC
:102300002E8F6115710581F06A30710509F0BECF1D
:1023100089E0809354060C94CA08153311F40C9488
:1023200013081C3571F3CFCF38E0309354060C946A
:10233000CA08B1E0BE8F0C94CA08133009F0E1CA94
:10234000C3CA153009F4C9CA173009F4D5CA133005
:1023500009F0D7CABACAE5960FB6F894DEBF0FBE29
:10236000CDBFDF91CF911F910F91FF90EF90DF9044
:10237000CF90BF90AF909F908F907F906F905F9025
:102380004F903F902F900895CF93DF9321E5829F48
:10239000C0011124EC01DD5F40E550E0BE0185E99C
:1023A00095E00E948506892B59F41092950540E529
:1023B00050E065E975E0CE010E94EB0680E001C0C7
:1023C00081E0DF91CF9108958F929F92AF92BF925B
:1023D000CF92DF92EF92FF920F931F93CF93DF93F1
:1023E000EB0127EEE22E25E0F22E8C016B018CE052
:1023F000C80ED11C6991799189919991F7018190C9
:102400009190A190B1907F010E942E37A501940177
:102410000E948436F80161937193819391938F01A7
:10242000CC15DD0539F7DF91CF911F910F91FF900A
:10243000EF90DF90CF90BF90AF909F908F900895D6
:102440001F920F920FB60F9211242F933F934F9329
:102450005F936F937F938F939F93AF93BF93EF930C
:10246000FF9386B18095877099F080FF03C00E942A
:10247000EC2A0EC0982F947021F08091E5058260BF
:1024800005C081FF05C08091E50588608093E50562
:10249000FF91EF91BF91AF919F918F917F916F913C
:1024A0005F914F913F912F910F900FBE0F901F9012
:1024B0001895CF93DF93C0914B05D0914C05209791
:1024C000B9F081E080934E056091640570916505D7
:1024D00080916605909167059B01AC010E94DC38F4
:1024E000698B7A8B8B8B9C8B10924C0510924B05D1
:1024F000DF91CF9108952F923F924F925F926F920A
:102500007F928F929F92AF92BF92CF92DF92EF9283
:10251000FF920F931F93CF93DF93CDB7DEB7CD54C8
:10252000D1090FB6F894DEBF0FBECDBF809137063C
:10253000807723968FAF2397882389F020E030E0BF
:10254000A90160916405709165058091660590917F
:1025500067050E947A36882311F40C94391B209168
:10256000F50422962FAF2297309174053B8340915A
:1025700075054C830091760510917705509164059F
:102580005F8B80916505888F90916605998FA091EA
:102590006705AA8FE0906005F0906105B091620533
:1025A000BA87E0916305ED87F091D004FBA72091F5
:1025B000660424962FAF24973091820125963FAF71
:1025C000259740914B0550914C055A8B498B509162
:1025D0004F055DAF809150058EAF909151059FAF33
:1025E000A09152052196AFAF2197209153053091CC
:1025F000540540915505509156052FA338A749A77A
:102600005AA78091570590915805A0915905B0910E
:102610005A0589AF9AAFABAFBCAF20915B05309143
:102620005C0540915D0550915E052DAB3EAB4FAB17
:1026300058AF30916C053B8B40916D054C8B5091A0
:102640006E055D8B80916F058E8B909170059983DF
:10265000A0917105AA833090720520907305B09106
:102660006504BB8FE0916805EC8FF0916905FD8FE3
:1026700020916A052E8F30916B053F8F8091CF049A
:102680005BA5851709F417C749895A89452B09F0B5
:1026900043C224965FAD24978B8D581709F45BC70E
:1026A000A82EB12CA9E2AA9DC001AB9D900D1124CA
:1026B000FC01ED57FE4FFA8BE98B80914E05882384
:1026C00019F010924E05BCC080914D058F5F85308A
:1026D00019F080934D0502C010924D05E0914D0513
:1026E00021E12E9FF0011124EA50FB4F89E28A9DDF
:1026F000A0018B9D500D11244D575E4F4A01DA0108
:102700008C91808311964D915D916D917C91149780
:10271000DB01CA0123E0880F991FAA1FBB1F2A955E
:10272000D1F781839283A383B483D40115964D910D
:102730005D916D917C911897DB01CA0133E0880FA0
:10274000991FAA1FBB1F3A95D1F785839683A7834C
:10275000B087D40119964D915D916D917C911C9734
:10276000DB01CA0143E0880F991FAA1FBB1F4A95CE
:10277000D1F781879287A387B487D4011D966D9185
:102780007D918D919C9150976B017C0153E0CC0C15
:10279000DD1CEE1CFF1C5A95D1F7C586D686E78650
:1027A000F08A0E942C376DAF7EAF8FAF21969FAF1E
:1027B0002197F40125A136A147A150A50E94843696
:1027C0006FA378A789A79AA79B01AC0160E070E08E
:1027D00080EA9FE30E94843669AF7AAF8BAF9CAFEB
:1027E0002396FFAD2397FF23D1F02B893C894D8998
:1027F0005E896B897C898D899E890E94DC38D40131
:1028000051966D937D938D939C935497BB89BF8B09
:10281000EC89E88FFD89F98F2E892A8F0DC0D401AC
:1028200051966D917D918D919C9154970E947B3929
:102830006F8B788F898F9A8F1DAA1EAA1FAA18AE38
:1028400029E22A9DF0012B9DF00D1124ED57FE4F3A
:10285000FE87ED8781A192A1A3A1B4A18D839E8360
:10286000AF83B8879C01AD0160E070E080E09FE33A
:102870000E9484366B017C012396BFAD2397BB2356
:1028800009F440C0E2E0E0935F05AD85BE85959612
:102890004D905D906D907C90989751968D909D9005
:1028A000AD90BC905497A50194010E94DC389B0127
:1028B000AC01C301B2010E9484357B018A879D87E8
:1028C00020E030E0A9010E947A3687FF2AC12D81DD
:1028D0003E814F815885CA01B9010E948535A30107
:1028E00092010E94DC389B01AC01C501B4010E9439
:1028F00084350E947B396B8B7C8B8D8B9E8B3B86CA
:102900002C8605C110925F05ED85FE85F5A1F98342
:10291000AD85BE859696BC91BA83ED85FE85F7A1FF
:10292000FB87AD85BE859896BC91BC87EB8DEF5F2C
:10293000E23109F4E0E02496FFAD2497EF1789F027
:1029400029E22E9FF0011124ED57FE4F6189728913
:10295000838994890E947B396B8B7C8B8D8B9E8BBA
:1029600004C01B8A1C8A1D8A1E8A2B893C894D89BA
:102970005E896B897C898D899E890E94DC382B0158
:102980003C0189E28A9DA0018B9D500D11244D5779
:102990005E4F59A348A3DA0151962D913D914D9177
:1029A0005C9154972D873E874F87588BA3019201E6
:1029B0006D857E858F8598890E948435A701960153
:1029C0000E94DC3829813A814B855C850E948535DF
:1029D00020E030E040E05FE30E94DC38362E272E16
:1029E00089879A8720E030E0A9010E949C38181658
:1029F0000CF0A0C0232D322D49855A8569817A813A
:102A00008B859C850E949C3818160CF075C0E8A137
:102A1000F9A1858C968CA78CB0A0A3019201C50169
:102A2000B4010E948435A70196010E94DC38162F5C
:102A30007C838AA398A3262F372FAC01632D722D98
:102A400089859A850E949C381816ACF5C501B40199
:102A50000E947B396C8F7D8F8E8F9F8FA501940193
:102A60006D857E858F8598890E947A36811107C091
:102A7000F1E0F0935F051B830AA118A148C02D85E2
:102A80003E854F855889C501B4010E948435A70150
:102A900096010E94DC389B01AC0169817A818B85AB
:102AA0009C850E9484351B830AA118A169837A83BF
:102AB0008B879C872CC02D813E814F815885CA0110
:102AC000B9010E948535232D322D49855A850E94F2
:102AD000DC38A30192010E9485350E947B396C8FFE
:102AE0007D8F8E8F9F8F3B822C8209851A8539823C
:102AF0002A820B871C870BC022E020935F053F8949
:102B00003C8F488D4D8F598D5E8F8A8D8F8F1D82A2
:102B100019861A861D861EC0ED82F9863B862C8694
:102B200019C0ED82F9863B862C861B8A1C8A1D8A79
:102B30001E8A10C09B899C8FAC89AD8FBD89BE8FCA
:102B4000EE89EF8F1D8219861A861D8619821A82D8
:102B50001B861C8622963FAD2297232F30E039A397
:102B600028A346E0429FF001439FF00D1124EF524D
:102B7000FB4F80914D058283A989BA899596BC91B6
:102B8000B8ABE989FA89F6A1F9ABA989BA89979610
:102B9000BC912696BFAF2697E989FA89F0A52796BA
:102BA000FFAF279729AD3AAD4BAD5CAD68A979A9C8
:102BB0008B2F9F2F0E9484356CA77DA78EA79FA780
:102BC00020E030E0A9010E947A3687FF04C01CA6ED
:102BD0001DA61EA61FA620915F052AA329813A8162
:102BE0004B855C856B817C81C8010E947A3681119E
:102BF00005C032E028963FAF289704C041E02896F0
:102C00004FAF289728A859A92E965FAF2E972696E2
:102C10008FAD26972D968FAF2D9727963FAC279790
:102C20008EE3C82E83ECD82E8EE2E82E89E3F82EB0
:102C3000412C512C3201CBA2DCA2EDA2FEA23AA182
:102C4000332321F0313009F485C0C2C0A989BA8983
:102C500091962D913D914D915C919497C701B6014C
:102C60000E94DC384B015C0120E030E040E05FE393
:102C70000E94DC382F89388D498D5A8D0E94853508
:102C8000A70196010E94DC389B01AC01622D2E96B3
:102C90007FAD2E972D968FAD2D97932D0E94843565
:102CA000262E2E967FAF2E972D968FAF2D97392EED
:102CB00029813A814B855C850E947A3687FF3DC029
:102CC00029813A814B855C8568A979A926968FADC3
:102CD000269727969FAD27970E9484359B01AC01CC
:102CE0000E9485356B017C012F89388D498D5A8D65
:102CF0006C8D7D8D8E8D9F8D0E9485359B01AC01E5
:102D0000C701B6010E9484366B017C012896BFADD5
:102D10002897BAA3EC8DEF8BFD8DF88F2E8D298F20
:102D20003F8D3A8F29804A812E964FAF2E975B8533
:102D30002D965FAF2D973C84EDC0A50194016F895E
:102D4000788D898D9A8D0E9485356F8B788F898FCC
:102D50009A8FE0C02C8D3D8D4E8D5F8DC701B601E1
:102D60000E94DC389B01AC01622D2E967FAD2E9720
:102D70002D968FAD2D97932D0E9484354B015C01CC
:102D80002B813C81A8010E947A3687FFBBC02B8132
:102D90003C81A801622D2E967FAD2E972D968FAD8A
:102DA0002D97932D0E9484352C8D3D8D4E8D5F8DFA
:102DB0000E9484366B017C012B808C812E968FAF14
:102DC0002E972D960FAF2D97312E92E09AA3A2C089
:102DD000A989BA8991962D913D914D915C919497D5
:102DE000C701B6010E94DC384B015C012F89388D88
:102DF000498D5A8D0E947A3687FF53C020E030E01B
:102E000040E05FE3C501B4010E94DC389B01AC01E6
:102E10006F89788D898D9A8D0E948435A7019601DE
:102E20000E94DC389B01AC01622D2E967FAD2E975F
:102E30002D968FAD2D97932D0E94843529966FAFD7
:102E400029972A967FAF2A972B968FAF2B972C9690
:102E50009FAF2C972D8139854A855D850E949C38CE
:102E60001816FCF4A50194016F89788D898D9A8DCF
:102E70000E9484356F8B788F898F9A8F29962FAC1B
:102E800029972A96BFAD2A972E96BFAF2E972B96DD
:102E9000EFAD2B972D96EFAF2D972C963FAC2C973F
:102EA00039C02D8139854A855D85622D2E967FAD8D
:102EB0002E972D968FAD2D97932D0E9484359B01D3
:102EC000AC010E9485356B017C012F89388D498DBD
:102ED0005A8D6B897C898D899E890E9485359B01DD
:102EE000AC01C701B6010E9484366B017C012D80C4
:102EF000F9852E96FFAF2E972A852D962FAF2D9709
:102F00003D8408C0282C2E969FAE2E972D96AFAEEE
:102F10002D973B2CA7019601C301B2010E94853574
:102F20002B013C012BA13CA14DA15EA10E947A3650
:102F300087FF07C0A30192016BA17CA18DA19EA177
:102F400020C02CA53DA54EA55FA5622D2E967FAD78
:102F50002E972D968FAD2D97932D0E949C38181685
:102F60004CF52EE333EC4EE259E36BA17CA18DA12D
:102F70009EA10E9485356BA37CA38DA39EA3A30174
:102F800092010E9484356B017C012D8139854A852F
:102F90005D85622D2E967FAD2E972D968FAD2D9748
:102FA000932D0E949C3818160CF449CE3AA1309308
:102FB0005F0503C04AA140935F052FA138A549A52D
:102FC0005AA5622D2E967FAD2E972D968FAD2D97FB
:102FD000932D0E94DC386AA37BA38CA798AB0E9438
:102FE00063366B017C016DAD7EAD8FAD21969FADDB
:102FF00021970E9463364B015C01A70196010E9454
:1030000084350E94FD3669AB7AAB8BAB9CABA6E0F6
:1030100088A199A1A89FF001A99FF00D1124EF525A
:10302000FB4F29A93AA931832083232B09F092C0B1
:1030300023965FAD2397552309F48CC089819A812B
:10304000AB85BC858093700590937105A093720544
:10305000B09373058C8D9D8DAE8DBF8D809368056B
:1030600090936905A0936A05B0936B058B819C8151
:10307000D8018093740590937505A0937605B0935D
:1030800077058D819985AA85BD858093600590938C
:103090006105A0936205B09363058B899C89AD8916
:1030A000BE8980936C0590936D05A0936E05B093D7
:1030B0006F0589899A8990934C0580934B059B8D68
:1030C000909365042FA138A549A55AA520935305CF
:1030D00030935405409355055093560589AD9AADEC
:1030E000ABADBCAD8093570590935805A09359059F
:1030F000B0935A0522969FAD22979093F504ABA505
:10310000A093D00410926405109265051092660594
:103110001092670510925B0510925C0510925D0598
:1031200010925E05C0924F05D0925005E092510575
:10313000F0925205C701B6010E948436E989FA89E6
:1031400065A376A387A390A70E945912FB8DF093E5
:10315000820175C12DA93EA94FA958ADC301B20185
:103160000E9485352B013C012AA13BA14CA558A901
:10317000C501B4010E9484359B01AC01C301B201B9
:103180000E9484364B015C012AA13BA14CA558A9A1
:10319000C701B6010E948435A50194010E94DC3864
:1031A0006DAB7EAB8FAB98AF20EC31EE44E65EE4C6
:1031B000C501B4010E94DC380E9463360E94FD36CE
:1031C000603D27E072078105910560F4A6E048A103
:1031D00059A1A49FF001A59FF00D1124EF52FB4FC0
:1031E000158253C0603ABFE07B078105910560F40A
:1031F00046E028A139A1429FF001439FF00D112420
:10320000EF52FB4F51E011C06034AFE17A07810506
:10321000910568F446E028A139A1429FF001439F3F
:10322000F00D1124EF52FB4F52E055830CC026E005
:10323000A8A1B9A12A9FF0012B9FF00D1124EF52F4
:10324000FB4F33E03583A6E048A159A1A49FF001CC
:10325000A59FF00D1124EF52FB4F2581022E04C0D3
:1032600096958795779567950A94D2F749A95AA9B3
:1032700002C0440F551F2A95E2F751834083611520
:10328000710551E08507910568F426E0A8A1B9A170
:103290002A9FF0012B9FF00D1124EF52FB4F7483F6
:1032A000638304C04FEF5FEF54834383BBA4B394A5
:1032B00056E0B51201C0B12C2D8139854A855D8556
:1032C000622D2E967FAD2E972D968FAD2D97932D37
:1032D0000E949C381816CCF4822D2E969FAD2E9706
:1032E0002D96AFAD2D97B32DE989FA8985A396A3C5
:1032F000A7A3B0A7FAA1FDAF2BA12EAF3CA53FAF6E
:1033000048A921964FAF2197CCC020E030E0A90119
:10331000622D2E967FAD2E972D968FAD2D97932DE6
:103320000E949C3818160CF0A5C089819A81AB8543
:10333000BC858093700590937105A0937205B0933E
:1033400073058C8D9D8DAE8DBF8D80936805909398
:103350006905A0936A05B0936B058B819C81D801A8
:103360008093740590937505A0937605B0937705C7
:103370008D819985AA85BD858093600590936105AF
:10338000A0936205B09363058B899C89AD89BE8942
:1033900080936C0590936D05A0936E05B0936F05B7
:1033A00089899A8990934C0580934B059B8D9093C6
:1033B00065042FA138A549A55AA52093530530933C
:1033C0005405409355055093560589AD9AADABAD64
:1033D000BCAD8093570590935805A0935905B093C1
:1033E0005A059BA59093F504B092D0041092640501
:1033F00010926505109266051092670510925B05A4
:1034000010925C0510925D0510925E05C0924F050A
:10341000D0925005E0925105F0925205C701B601D5
:103420000E948436A989BA8995966D937D938D9370
:103430009C9398970E945912BB8DB0938201C35BF5
:10344000DF4F0FB6F894DEBF0FBECDBFDF91CF9137
:103450001F910F91FF90EF90DF90CF90BF90AF90B2
:103460009F908F907F906F905F904F903F902F90A4
:103470000C9454262496EFAD2497FB8DEF1779F02A
:103480008F2F8F5F823109F480E02B8D25963FAD21
:103490002597231303C025968FAF25978B8F1A8A04
:1034A000198A3B842C84ED80F9844BA522964FAF7A
:1034B0002297BBA6E3C88F89988DA98DBA8D80937A
:1034C000640590936505A0936605B09367058981AF
:1034D0009A81A32DB22D8093700590937105A093CE
:1034E0007205B09373058C8D9D8DAE8DBF8D8093CD
:1034F000680590936905A0936A05B0936B058B816D
:103500009C81D8018093740590937505A0937605EE
:10351000B0937705C701AA85BD8580936005909318
:103520006105A0936205B09363058B899C89AD8981
:10353000BE8980936C0590936D05A0936E05B09342
:103540006F0589899A8990934C0580934B059B8DD3
:10355000909365044FC08F89988DA98DBA8D809303
:10356000640590936505A0936605B093670589810E
:103570009A81A32DB22D8093700590937105A0932D
:103580007205B09373058C8D9D8DAE8DBF8D80932C
:10359000680590936905A0936A05B0936B058B81CC
:1035A0009C81D8018093740590937505A09376054E
:1035B000B0937705C701AA85BD8580936005909378
:1035C0006105A0936205B09363058B899C89AD89E1
:1035D000BE8980936C0590936D05A0936E05B093A2
:1035E0006F0510924C0510924B0524968FAD2497D1
:1035F000809365048DAD9EADAFAD2196BFAD219793
:1036000080934F0590935005A0935105B0935205B8
:103610002FA138A549A55AA52093530530935405E9
:10362000409355055093560589AD9AADABADBCADF1
:103630008093570590935805A0935905B0935A0568
:103640002DA93EA94FA958AD20935B0530935C0589
:1036500040935D0550935E0522963FAD22973093CF
:10366000F5044BA54093D00425965FAD2597509364
:103670008201C35BDF4F0FB6F894DEBF0FBECDBF34
:10368000DF91CF911F910F91FF90EF90DF90CF903E
:10369000BF90AF909F908F907F906F905F904F9072
:1036A0003F902F90089580911806682F2091190659
:1036B000422F982F917080FD94E0822F817020FD21
:1036C00080E261FD986041FD806462FD906142FD91
:1036D00080689093AA048093A90408951F920F9282
:1036E0000FB60F9211248F939F938BB19091AA04E0
:1036F0009C71837E892B8BB915BC9F918F910F9004
:103700000FBE0F901F90189580916F008D7F809352
:103710006F0080918100887F81608093810010928A
:10372000AB0480911A068F3F21F4909135069923BE
:1037300049F090913706943029F090E00E94E12AF8
:1037400081E001C080E09091240692FF02C091E0E8
:103750008927882311F0289A0895289808950E94AF
:10376000841B8BE2EDE4F5E0DF011D928A95E9F719
:1037700083E2ECEAF4E0DF011D928A95E9F710920A
:103780004C0510924B051092CF041092F50481E085
:103790008093D0041092AB040E94531B8BB1837EA4
:1037A0009091AA04892B8BB98BB18F719091A90448
:1037B000892B8BB908951F920F920FB60F92112487
:1037C0002F933F934F935F936F937F938F939F9329
:1037D000AF93BF93EF93FF938091AB04811110C21D
:1037E0008BB19091BB04907E8F71892B8BB98BB17B
:1037F000837E9091BA04892B8BB98091B90486BDE0
:1038000082E085BD81E08093AB0478948091CD0403
:103810009091CE04892B09F0ADC08091CF04909196
:10382000F504981709F49BC0E091CF042E2F30E0E7
:1038300086E0E89FF0011124EF52FB4FF093CE0495
:10384000E093CD04838194819093890080938800D4
:10385000808191819093C9048093C804E281809112
:10386000CA048E1761F1E093CA0481E1E89FF00178
:103870001124EA50FB4FF093CC04E093CB048585F0
:103880009685A785B089B695A795979587958093D6
:10389000B4049093B504A093B604B093B704809396
:1038A000B0049093B104A093B204B093B304809396
:1038B000AC049093AD04A093AE04B093AF04E09138
:1038C000CB04F091CC0490818091A9048927809346
:1038D000BB0486E0829FD001839FB00D1124AF52BC
:1038E000BB4F15962C9181819281A381B481022EC8
:1038F00004C0B695A795979587950A94D2F78093BB
:10390000BC049093BD04A093BE04B093BF04858112
:103910009681A781B085022E04C0B695A79597958C
:1039200087950A94D2F78093C0049093C104A09322
:10393000C204B093C30481859285A385B48504C075
:10394000B695A795979587952A95D2F78093C40445
:103950009093C504A093C604B093C7040BC00E9403
:10396000841B9FB7F8948091E50584608093E505FA
:103970009FBF46C18091E6058130B1F486B1807267
:1039800090913406891781F01092E6058CE0EAE305
:10399000F6E0A6E4B6E001900D928A95E1F78091F9
:1039A000E50580648093E5051092BA044091AC046B
:1039B0005091AD046091AE047091AF048091BC044D
:1039C0009091BD04A091BE04B091BF04840F951FD7
:1039D000A61FB71F8093AC049093AD04A093AE04D0
:1039E000B093AF04E091CB04F091CC0445855685AB
:1039F00067857089481759076A077B0768F524E0CF
:103A00002093BA044585568567857089841B950B7C
:103A1000A60BB70B8093AC049093AD04A093AE04B7
:103A2000B093AF04208180913A0690913B06A0911B
:103A30003C06B0913D0625FF04C00197A109B109DC
:103A400003C00196A11DB11D80933A0690933B06D9
:103A5000A0933C06B0933D064091B0045091B10450
:103A60006091B2047091B3048091C0049091C1043C
:103A7000A091C204B091C304840F951FA61FB71F65
:103A80008093B0049093B104A093B204B093B304B4
:103A90004585568567857089481759076A077B07EA
:103AA00078F52091BA0428602093BA04458556859C
:103AB00067857089841B950BA60BB70B8093B004A8
:103AC0009093B104A093B204B093B3042081809189
:103AD0003E0690913F06A0914006B091410626FF18
:103AE00004C00197A109B10903C00196A11DB11D30
:103AF00080933E0690933F06A0934006B093410604
:103B00004091B4045091B5046091B6047091B7042B
:103B10008091C4049091C504A091C604B091C704DB
:103B2000840F951FA61FB71F8093B4049093B5040C
:103B3000A093B604B093B704458556856785708910
:103B4000481759076A077B0778F52091BA04206166
:103B50002093BA044585568567857089841B950B2B
:103B6000A60BB70B8093B4049093B504A093B6044E
:103B7000B093B70420818091420690914306A091B2
:103B80004406B091450627FF04C00197A109B10979
:103B900003C00196A11DB11D809342069093430678
:103BA000A0934406B093450680913706843039F4DB
:103BB0009091BA048091530689238093BA0480912E
:103BC000C8049091C90401979093C9048093C804D4
:103BD000892B69F41092CE041092CD048091CF0409
:103BE0008F5F8093CF04863011F41092CF049091B0
:103BF000BA048091AA0489278093BA041092AB0476
:103C0000FF91EF91BF91AF919F918F917F916F91B4
:103C10005F914F913F912F910F900FBE0F901F908A
:103C200018958091240682FF02C0289A01C0289826
:103C3000809137068C70A1F08091A9048093BB0419
:103C40008091AA048093BA0480911706880F84504B
:103C500081958093B90480916F00826080936F009A
:103C60000895E0EBF0E080818F7780830895CF9214
:103C7000DF92EF92FF926A017B01811106C0FF90F3
:103C8000EF90DF90CF900C94311E813011F42D987D
:103C900001C02D9A83E88093B0008091B100887FA5
:103CA00082608093B10020E030E0A901C701B60135
:103CB0000E947A3618161CF720E030E0A901C701EF
:103CC000B6010E947A3687FD11C020E030E04AE755
:103CD00054E4C701B6010E949C38181654F4C12C54
:103CE000D12C8AE7E82E84E4F82E03C0C12CD12C15
:103CF00076012CE53FE842E85EE3C701B6010E9489
:103D0000DC3820E030E040E05FE30E9485350E942F
:103D100069370E94FD366093B300FF90EF90DF900B
:103D2000CF90089569E080E090E00E94C9064DE4DC
:103D300050E067EE75E081E090E00C94EB062DE03A
:103D4000829FC00111244CE050E09E5F0C94EB0672
:103D50001F93CF93DF93182FEB018DE0189FB001D5
:103D600011247E5F4CE050E0CE010E948506892B35
:103D700059F48CE0FE0111928A95E9F7BE01812F7A
:103D80000E949F1E80E001C081E0DF91CF911F91D2
:103D90000895EF92FF920F931F93CF93DF93CDB7C8
:103DA000DEB72C970FB6F894DEBF0FBECDBF182F2D
:103DB00080FFC1C08AE08093170689E180931A06CC
:103DC000109218061092190683E080931B068AE071
:103DD00097EDA3E2BCE380931C0690931D06A0938D
:103DE0001E06B0931F068FE692E1A3E0BBE380932B
:103DF000200690932106A0932206B09323061092EA
:103E0000250680E090E0A8ECB1E48093260690932C
:103E10002706A0932806B093290680E090E0AAEF39
:103E2000B3E480932A0690932B06A0932C06B093BC
:103E30002D062AEF30E030932F0620932E0640E027
:103E400050E060E87FE34093300650933106609382
:103E50003206709333061092240640E050E06AE781
:103E600073E44093E7055093E8056093E905709388
:103E7000EA054093EB055093EC056093ED057093D4
:103E8000EE054093EF055093F0056093F1057093B4
:103E9000F2058093F3059093F405A093F505B09394
:103EA000F6058093F7059093F805A093F905B09374
:103EB000FA058093FB059093FC05A093FD05B09354
:103EC000FE0580E090EAACE0B7E48093FF059093B4
:103ED0000006A0930106B093020680930306909318
:103EE0000406A0930506B0930606809307069093F8
:103EF0000806A0930906B0930A0680E090E0A8E4C3
:103F0000B3EC80930B0690930C06A0930D06B09330
:103F10000E0680930F0690931006A0931106B0939F
:103F200012068093130690931406A0931506B0937F
:103F300016060E94921E11FF10C0CE0101967C0150
:103F40008CE0F70111928A95E9F700E0B701802F24
:103F50000E949F1E0F5F0830C9F712FF0AC060E081
:103F600080E093E00E94C90660E081E593E00E9452
:103F7000C90613FF05C060E08EEA93E00E94C906FF
:103F80002C960FB6F894DEBF0FBECDBFDF91CF9158
:103F90001F910F91FF90EF9008951F920F920FB60F
:103FA0000F9211242F933F934F935F936F937F93BF
:103FB0008F939F93AF93BF93EF93FF938091C6002E
:103FC0008F33A9F050F4883109F1813211F59FB790
:103FD000F8948091E505886015C0803471F08E37C3
:103FE000C1F49FB7F8948091E50582600BC09FB73C
:103FF000F8948091E505816005C09FB7F8948091A1
:10400000E50580628093E5059FBF14C00E94EC2AFD
:1040100011C0E091810191E09E0F903809F490E089
:1040200020918001921731F0F0E0E050FF4F808343
:1040300090938101FF91EF91BF91AF919F918F91EB
:104040007F916F915F914F913F912F910F900FBE94
:104050000F901F9018951F920F920FB60F92112478
:104060008F939F93EF93FF938091A804E82FF0E044
:10407000E859FB4F90819093C6008F5F803409F41C
:1040800080E08093A80490916704891305C0809113
:10409000C1008F7D8093C100FF91EF919F918F911F
:1040A0000F900FBE0F901F901895E091670491E05C
:1040B0009E0F903431F490E004C02091E50524FD7A
:1040C0000FC02091A8042917C1F3F0E0E859FB4F75
:1040D0008083909367048091C10080628093C100C7
:1040E0000895CF93DF93C5E9D5E08991882319F02E
:1040F0000E945520FACFDF91CF910895CF93C0E071
:104100008C2F0E94C411811104C087E00E94C62137
:104110000AC080919505882331F00E9471200E9489
:104120002A070E94B923CF5FC23051F7CF9108957B
:104130008F929F92AF92BF92CF92DF92EF92FF92B7
:104140000F931F93CF93DF93CDB7DEB72A970FB6A8
:10415000F894DEBF0FBECDBF6B017C01042F20E0C1
:1041600030E0A9010E947A3687FF07C08DE20E94E5
:104170005520F7FAF094F7F8F094102F123060F011
:1041800020E030E048EC52E4C701B6010E94DC3880
:104190006B017C011250F2CF00FF0AC020E030E03A
:1041A00040E251E4C701B6010E94DC386B017C019A
:1041B00020E030E040E05FE3C701B6010E948535B2
:1041C0000E94F636E1E0F0E0EC0FFD1FE00FF11D7C
:1041D0002EE2208310E03AE0832E912CA12CB12C0A
:1041E0006115710581059105A9F0101301C01F5FCC
:1041F000EE24E394F12CEC0EFD1EE10EF11CA50162
:1042000094010E94F139605DF7016083B901CA0130
:104210001F5FE6CF80E3101748F4E1E0F0E0EC0F19
:10422000FD1FE10FF11D80831F5FF5CF10130BC041
:1042300081E0810FE1E0F0E0EC0FFD1FE80FF11DE0
:104240001E5F80E38083112341F0FE01E10FF11D29
:1042500080810E9455201150F6CF2A960FB6F8940F
:10426000DEBF0FBECDBFDF91CF911F910F91FF90A9
:10427000EF90DF90CF90BF90AF909F908F90089578
:1042800043E00C949820CF92DF92EF92FF921F931D
:10429000CF93DF93CDB7DEB7362F142FCDB6DEB672
:1042A0004DB75EB7411B51090FB6F8945EBF0FBE04
:1042B0004DBF4F5F5F4F7A01242FFA019E2F921B53
:1042C000911728F4632F0E94E5399193F7CF1123BA
:1042D00051F0F701E10FF11D31978081805D0E945F
:1042E00055201150F4CF0FB6F894DEBE0FBECDBEF0
:1042F000DF91CF911F91FF90EF90DF90CF900895C5
:1043000048E062E00C9443219FB7F8948091E50562
:1043100082608093E5059FBF08952091240620FFC9
:1043200008C02BE832E441E25DE30E94DC3841E062
:1043300001C040E00C9498202091240620FF08C082
:104340002BE832E441E25DE30E94DC3844E001C046
:1043500043E00C9498208A3020F0843620F043E02B
:1043600003C041E001C042E06AE00C944321CF93D6
:10437000DF93FC018491EF012196882321F00E94B4
:104380005520FE01F7CFDF91CF910895CF93C82F2D
:1043900083E398E00E94B7218C2F90E0FC013197D5
:1043A000E631F10580F5EB58FF4F0C94133A8BE1A1
:1043B00098E002C089E098E00E94B7212BC087EF07
:1043C00097E0FACF8DEE97E0F7CF8CED97E0F4CF42
:1043D0008DEC97E0F1CF8CEA97E0EECF83EA97E09F
:1043E000EBCF88E997E0E8CF85E897E0E5CF87E76E
:1043F00097E0E2CF81E697E0DFCF8DE497E0DCCF76
:1044000089E397E0D9CF87E297E00E94B7218C2F0C
:104410000E94AB2184E297E0CF910C94B7218F9258
:104420009F92AF92BF92EF92FF920F931F93CF9301
:104430008EE197E00E94B72186E4E82E86E0F82E10
:1044400007EE15E0C0E0F7016191719181919191C2
:104450007F01F80181909190A190B1908F010E940D
:104460002E37A50194010E9484360E949C21C230FF
:1044700021F08CE197E00E94B721CF5FC33019F79C
:104480008AE197E00E94B721809152060E94AB21F9
:1044900086E197E0CF911F910F91FF90EF90BF9031
:1044A000AF909F908F900C94B721FF920F931F9322
:1044B000CF93DF9382E197E00E94B72180911706A6
:1044C0000E94AB2189EF96E00E94B72180911A06E5
:1044D0000E94AB218BED96E00E94B72180911806D7
:1044E0000E94AB2182EC96E00E94B72180911806D1
:1044F0000E9480218BEB96E00E94B72180911906E3
:104500000E94AB2183EA96E00E94B72180911906B0
:104510000E9480218CE996E00E94B72180912406B8
:1045200082FB882780F90E94AB218BE796E00E94EE
:10453000B7218091240686FB882780F90E94AB2151
:104540008BE596E00E94B72180912406881F88277A
:10455000881F0E94AB218BE396E00E94B7218091D7
:104560001B060E94AB2185E296E00E94B721809154
:104570001B060E9480218DE196E00E94B721609188
:104580001C0670911D0680911E0690911F060E94C8
:1045900040218DEF95E00E94B72160912006709137
:1045A000210680912206909123060E94402182EEEE
:1045B00095E00E94B7218091240681700E94AB2172
:1045C00085EC95E00E94B7218091240685FB882721
:1045D00080F90E94AB218AEA95E00E94B721809180
:1045E000240683FB882780F90E94AB218FE895E0A1
:1045F0000E94B72180912406829581700E94AB2190
:1046000083E795E00E94B721809125060E94AB21A7
:1046100089E595E00E94B721809125060E948021BE
:1046200081E595E00E94B7216091260670912706EA
:1046300080912806909129060E94402184E395E00C
:104640000E94B72160912A0670912B0680912C065A
:1046500090912D060E94402187E195E00E94B721AC
:1046600080912E060E94AB2188EF94E00E94B72132
:104670006091300670913106809132069091330638
:104680000E9440218FED94E00E94B72184E6F82E2D
:10469000C0E007EE15E0D0E08DED94E00E94B72178
:1046A0008D2F8F0D0E94AB218BED94E00E94B721DE
:1046B000C23079F0F801C330C1F0C13029F0608117
:1046C00071818281938118C06485758586859785FF
:1046D00013C020E030E041E655E4F801608D718DB3
:1046E000828D938D0E94843607C084A195A1A6A1D6
:1046F000B7A1BC01CD0190580E94402188ED94E003
:104700000E94B721D13029F0D23031F086ED94E00B
:1047100005C084ED94E002C082ED94E00E94B721D0
:10472000C23051F0C33059F0C13019F088EC94E038
:1047300008C086EB94E005C085EA94E002C085E9F4
:1047400094E00E94B72181E994E00E94B721DF5FE5
:104750000C5F1F4FD33009F09FCFFAE0FF0ECF5F01
:104760008CE8F81296CFDF91CF911F910F91FF90B7
:104770000895811104C08FEE93E00C94B7210C943E
:10478000C6213F924F925F926F927F928F929F923B
:10479000AF92BF92CF92DF92EF92FF920F931F934F
:1047A000CF93DF93CDB7DEB768970FB6F894DEBF2F
:1047B0000FBECDBF01E099E2A92E28E0722E30E2B3
:1047C000632E40E1B42E50E4552E62E0462E109147
:1047D0003506112309F45BC00093370611FF07C0AB
:1047E00087E394E00E94B7218CE294E023C012FF9B
:1047F00007C087E394E00E94B72181E294E01AC0E9
:1048000013FF07C087E394E00E94B7218EE094E095
:1048100011C014FF07C087E394E00E94B72183E032
:1048200094E008C015FF10C087E394E00E94B72110
:1048300087EF93E00E94B72184EF93E00E94B721B5
:1048400084EF91E00E94E12A10FD08C08FB7F89430
:1048500090913506109235068FBF19C08DEE93E00A
:104860000E94B7218BED93E00E94B7218AE793E085
:104870000E94B7219FB7F8948091E5058F7E8093C1
:10488000E5059FBF8091E50584FFFCCFDFCF109148
:10489000E505112309F4BDC114FF04C081E0809334
:1048A0003606C8C110FFF0C08CE0EAE3F6E0DE0196
:1048B0001D9601900D928A95E1F78091370684301C
:1048C000E9F040F48130E9F080F0823009F58CE6BF
:1048D00094E01CC0803179F018F4883049F018C099
:1048E000803291F0803421F013C08BE894E00EC048
:1048F00086E894E00BC080E894E008C08AE794E082
:1049000005C083E794E002C086E694E00E94B721E8
:1049100080911B06837039F0BE01635F7F4FCE012B
:1049200001960E94E41180911B0680FD05C08091D4
:104930001B0681FF6BC01CC08FE594E00E94B7216D
:10494000CE0101967C01D12CF70161917191819189
:1049500091917F010E949C21F2E0DF1621F08DE50C
:1049600094E00E94B721D39423E0D212EDCFDFCFA1
:1049700086E594E00E94B72180EBC82E86E0D82E11
:10498000CE0101967C01312C4701F60161917191B4
:10499000819191916F0120853185428553850E94D7
:1049A00085359B01AC01F701608171818281938122
:1049B0000E948435F7016083718382839383F2E0E0
:1049C0003F120FC02091C8063091C9064091CA0617
:1049D0005091CB060E948435F701608371838283F6
:1049E0009383F4E0EF0EF11CF40160817181828108
:1049F00093810E949C21F2E03F1621F084E594E02F
:104A00000E94B721339423E03212BECF80911B065F
:104A100082FF0EC08EE494E00E94B721809166046C
:104A200090916504891708F48E5E891B0E94AB2162
:104A300080911B0683FF0EC089E494E00E94B72199
:104A40009091800180918101891708F48058891B19
:104A50000E94AB2180911B0684FF0AC083E494E08E
:104A60000E94B7210E94900443E062E00E9443212B
:104A70008FE394E00E94B7219FB7F8948091E505F9
:104A80008E7F8093E5059FBF812F887609F444C00F
:104A900080913706882349F0982F9C77A9F18830B8
:104AA00021F40E9459120093380680913706811133
:104AB00002C04092380616FF09C0883011F45092A7
:104AC00037068091380688608093380613FF05C04A
:104AD0008091370685FFB092370615FF15C08DEE21
:104AE00093E00E94B72189E993E00E94B7218AE709
:104AF00093E00E94B7218091380681FD14608460A4
:104B000080933806609237069FB7F8948091E50548
:104B100087798093E5059FBF11FF57C0812F887665
:104B200009F04BC080913706882339F0807509F46D
:104B300044C08091380681FF40C08091380682FFD2
:104B400020C080919606882371F04091970650917D
:104B500098066091990670919A060E94371E80EA25
:104B60009FE00E94E12A80919506882351F08230CF
:104B700011F4439A02C00E94280788EE93E00E9435
:104B8000E12A8091650490916604981791F0A89E9F
:104B9000C00111248D579E4F892B59F08091380602
:104BA00083FD07C0709237060E947B120E94111E7F
:104BB00002C010923706109238069FB7F894809181
:104BC000E5058D7F8093E5059FBF12FF22C0809190
:104BD0003706807391F08091390681110EC0809163
:104BE000380682FF04C00E94311E0E94280780916F
:104BF000380682608093380604C0109238061092FE
:104C000037069FB7F8948091E5058B7F8093E50583
:104C10009FBF809137068C7711F00E947B12909194
:104C2000370680913806903219F481FDB09237062C
:104C30008111CDCD68960FB6F894DEBF0FBECDBF03
:104C4000DF91CF911F910F91FF90EF90DF90CF9068
:104C5000BF90AF909F908F907F906F905F904F909C
:104C60003F900895AAE3B6E0E8E7F5E04D915D9145
:104C70006D917D91419351936193719385E0E438F7
:104C8000F807A1F708958CE1E8E7F5E0DF011D9250
:104C90008A95E9F7109265041092660481E080938A
:104CA00094051092820108952F923F924F925F9245
:104CB0006F927F928F929F92AF92BF92CF92DF922C
:104CC000EF92FF920F931F93CF93DF93C0916604EF
:104CD000C11101C0C2E1C150D0918201DC1709F4B9
:104CE0001DC1EC2EF12C29E2C29F800111240D5729
:104CF0001E4FF801A588B688C788D08C61A172A123
:104D000083A194A19B01AC010E948535F80125A1E6
:104D100036A147A150A50E94DC384B018C019B01B4
:104D2000AC01B501C6010E947A3687FD02C054016C
:104D3000680189E28E9DF0018F9DF00D1124ED57E1
:104D4000FE4FC501D601818B928BA38BB48BC11111
:104D500001C0C2E1C150DC1761F029E22E9DC00103
:104D60002F9D900D11249C012D573E4F7901D9E2C2
:104D700033C080916504D81360C00E9459125DC091
:104D8000AC2EB12CDA9DC001DB9D900D1124FC01ED
:104D9000ED57FE4F6F01C11101C0C2E1C1508091BA
:104DA00065048C1302C00E945912DA9D8001DB9DBC
:104DB000100D11240D571E4FF80185889688A7887D
:104DC000B08CA501940161897289838994890E94BC
:104DD0007A36811106C0760180918201C813D0CF46
:104DE0002CC0F80161A172A183A194A19B01AC0127
:104DF0000E948535F80125A136A147A150A50E9442
:104E0000DC38F70121893289438954890E9485352C
:104E10002B013C019B01AC01C501B4010E949C38EF
:104E2000F80118162CF4418A528A638A748AD3CF07
:104E3000818A928AA38AB48ACECFD0918201F9E284
:104E4000DF9F800111240D571E4FC1E0CD0FC231ED
:104E500009F4C0E02090660489E2382EC21509F4F6
:104E60005BC0CC2ED12C3C9CC0013D9C900D1124EC
:104E70009C012D573E4F7901F80141885288638883
:104E80007488F90181889288A388B488A501940167
:104E9000C301B2010E947A3687FF24C0F80161A1E4
:104EA00072A183A194A19B01AC010E948535F801F8
:104EB00025A136A147A150A50E94DC38A30192018B
:104EC0000E9485352B013C019B01AC01C501B40159
:104ED0000E949C38181634F4F701418A528A638A7A
:104EE000748ADC2F3C9CF0013D9CF00D1124ED57A1
:104EF000FE4F258936894789508D6189728983895A
:104F000094890E947A36811101C0DC2FCF5FC231B3
:104F100009F4C0E08701A2CFD0938201DF91CF9145
:104F20001F910F91FF90EF90DF90CF90BF90AF90C7
:104F30009F908F907F906F905F904F903F902F90B9
:104F400008952F923F924F925F926F927F928F922D
:104F50009F92AF92BF92CF92DF92EF92FF920F9308
:104F60001F93CF93DF93CDB7DEB7E5970FB6F894D5
:104F7000DEBF0FBECDBF4B8F5C8F6D8F072F2DAB6C
:104F8000209166042EA3422F50E05BA34AA339E28E
:104F9000239FF0011124ED57FE4F158616861786C4
:104FA000108A15A216A217A210A6108249E956E788
:104FB00066E97EE741A352A363A374A31C0147EEF5
:104FC00055E058A74FA3CE0101969AAB89AB28E7CD
:104FD00035E03EA72DA74EA139E2439FC001112421
:104FE0009C012C573E4F3AA729A7AE01435F5F4F64
:104FF0005DA34CA359A348A388E795E098AB8FA77E
:1050000027EE35E03F8F2E8F10E03F01AF01435F69
:105010005F4F5CAB4BAB2F0155E2450E511CF101CC
:1050200061917191819191911F01EE8DFF8D819020
:105030009190A190B190FF8FEE8FA50194010E94F5
:10504000DC380E94A938E9A9FAA961937193819388
:105050009193FAABE9ABEFA5F8A9C190D190E1909B
:10506000F190F8ABEFA76C197D098E099F099B01A0
:10507000AC0197FF07C022273327A901261B370B56
:10508000480B590BE9A5FAA521933193419351930C
:10509000FAA7E9A7EBA9FCA9C080D180E280F38040
:1050A000C216D306E406F50610F469017A01EBA9ED
:1050B000FCA9C082D182E282F3820E942E37A50130
:1050C00094010E9484364B015C01E8A1F9A161932F
:1050D000719381939193F9A3E8A320E030E0A901B3
:1050E0000E947A3687FF0DC0112321F0113021F084
:1050F00080E803C080E201C080E4F3019081892B45
:105100008083A5019401C501B4010E94DC38F2013D
:1051100020813181428153810E948535F201608373
:105120007183828393831F5F133009F078CF0E94CD
:105130007B394B015C01F20160837183828393832D
:10514000CD28CE28CF2809F423C220E030E0A901E1
:105150006B8D7C8D8D8D902F0E947A3687FD21C0BE
:10516000FDA9FF2361F0A50194016B8D7C8D8D8DD0
:10517000902F0E94DC386B8F7C8F8D8F092F20E061
:1051800030E040E85FE36B8D7C8D8D8D902F0E9429
:105190007A3687FF0DC01B8E1C8E20E82D8F0FE303
:1051A00007C039E93B8F46E74C8F56E95D8F0EE724
:1051B000A501940160E070E080E89FE30E948436DE
:1051C00069A77AA78BA79CA7CE0149969A8F898F4A
:1051D000C12CD12C760129E2EAA1FBA12E9FC001AE
:1051E0002F9F900D11249C012C553E4F39A328A3CD
:1051F000ECA1FDA180809180A280B38020E030E00E
:10520000A901C501B4010E947A36882309F472C04D
:10521000A501940169A57AA58BA59CA50E94DC38FF
:105220002B013C01ECA1FDA16083718382839383F8
:105230009B01AC0160E070E080E89FE30E9484364F
:105240004B015C01E894B7F8EFA1F8A524853585FA
:1052500046855785C501B4010E94DC381B018E8F3D
:10526000192F2B8D3C8D4D8D502F0E949C38181678
:105270002CF02B8E3C8EFE8DFD8F012FE8A1F9A125
:10528000F081FE8FE8A1F9A1118122803380EFA186
:10529000F8A5208D318D428D538DC501B4010E943A
:1052A000DC385B014C019B01AC016E8D712FC1019B
:1052B0000E947A3687FD03C0AE8E1B2D14018E8DA1
:1052C000912FD101E8A1F9A180839183A283B383B7
:1052D000EDA5FEA52485358546855785C301B20118
:1052E0000E94DC389B01AC01C701B6010E948435E5
:1052F0006B017C012CA13DA12C5F3F4F3DA32CA352
:105300004DA55EA54C5F5F4F5EA74DA78FA198A5E9
:10531000049698A78FA3E98DFA8DE217F30709F099
:1053200067CF80916504FEA1F8130FC089E22AA11E
:105330003BA1829FF001839FF00D1124ED57FE4F9A
:10534000118A128A138A148A14C02FEE3FEF4FE796
:105350005FE3C701B6010E949C3818167CF489E20D
:105360004AA15BA1849FF001859FF00D1124ED57A8
:10537000FE4F118E128E138E148E6AC02FEE3FEFE9
:105380004FE75FEBC701B6010E949C38181644F046
:105390008FEEC82EDD24DA948FE7E82E8FEBF82EFF
:1053A000A701960160E070E080E89FE30E948435E9
:1053B00020E030E040E05FE30E94DC380E947B396F
:1053C0006B017C0189E22AA13BA1829FF001839FAE
:1053D000F00D1124ED57FE4F20911C0630911D0653
:1053E00040911E0650911F0661A172A183A194A154
:1053F0000E94DC38A70196010E94DC384B015C0159
:10540000A701960160E070E080E89FE30E94843588
:105410009B01AC01C501B4010E9484366B017C0183
:1054200020E030E0A9010E947A3687FF03C0C12C3A
:10543000D12C760189E24AA15BA1849FF001859F6E
:10544000F00D1124ED57FE4FC18ED28EE38EF48EF7
:105450002B8D3C8D4D8D502F6B8D7C8D8D8D902F98
:105460000E94DC387B018C0189E22AA13BA1829F4A
:10547000F001839FF00D1124ED57FE4FC701D801B5
:10548000858F968FA78FB0A3A18CB28CC38CD48C40
:105490006090900570909105809092059090930592
:1054A0009301A401B701C8010E947A3687FD05C0A7
:1054B000B62DA72DF82DE92D04C0BE2DAF2DF02F50
:1054C000E12F9501A6016B2F7A2F8F2F9E2F0E941F
:1054D0009C3818166CF09301A401B701C8010E9412
:1054E0007A3687FD03C05301640102C05701680189
:1054F00089E24AA15BA1849FF001859FF00D1124F0
:10550000ED57FE4FC501D601858B968BA78BB08FCB
:105510008CE0FE013D96A4E8B5E001900D928A95DD
:10552000E1F7C701D8018093900590939105A0936E
:105530009205B09393058CE0FE013196A8E7B5E0A3
:1055400001900D928A95E1F780919405809366040D
:105550008F5F823109F480E080939405E5960FB661
:10556000F894DEBF0FBECDBFDF91CF911F910F9199
:10557000FF90EF90DF90CF90BF90AF909F908F9073
:105580007F906F905F904F903F902F900C94542697
:10559000E5960FB6F894DEBF0FBECDBFDF91CF9179
:1055A0001F910F91FF90EF90DF90CF90BF90AF9041
:1055B0009F908F907F906F905F904F903F902F9033
:1055C0000895009741F0EFE9FFE03197F1F700C04F
:1055D00000000197F6CF08958091E50584FD26C06F
:1055E0009FB7F8948091E50580618093E5059FBFA2
:1055F0000E94311E0E94280780913706982F9C70C8
:1056000021F490913806913089F49FB7843029F4C1
:10561000F89480913506806204C0F8948091350634
:105620008860809335069FBF0C94841B08958F92E9
:105630009F92AF92BF92CF92DF92EF92FF920F9321
:105640001F93CF93DF937C016B01DC01CC91D0E001
:10565000FE01EB56FA4F80818D3229F4EF0122963C
:10566000818101E009C08B3219F0CA56DA4F03C0BC
:10567000EF012296818100E0912CF0E010E020E023
:1056800030E0A9015E01E0EDE80FEA30D0F4FF5F01
:10569000F93098F491101150A5E0B0E00E94193A49
:1056A000DC01CB01880F991FAA1FBB1F9C01AD0114
:1056B0002E0F311D411D511D0AC0911008C01F5FE2
:1056C00006C0EE3F41F4911006C0992493942196B0
:1056D000D5018C91D7CFFF2309F44FC0CA01B9017E
:1056E0000E942C374B015C0120E030E0A9010E94B0
:1056F0007A36882349F11F3F64F42AE037ED43E20C
:105700005CE3C501B4010E94DC384B015C011E5F03
:10571000F2CF1F3F59F42DEC3CEC4CEC5DE3C5019E
:10572000B4010E94DC384B015C010EC0112361F012
:1057300020E030E040E251E4C501B4010E94DC38D1
:105740004B015C011150F2CF002351F0B7FAB09435
:10575000B7F8B094F60180829182A282B38206C02B
:10576000D6018D929D92AD92BC921397C559D540AA
:10577000C150F701C08381E001C080E0DF91CF918B
:105780001F910F91FF90EF90DF90CF90BF90AF905F
:105790009F908F900895CF93DF93CDB7DEB7619739
:1057A0000FB6F894DEBF0FBECDBF8091C0008260FF
:1057B0008093C0001092C50080E18093C400809166
:1057C000C10080618093C1008091C1008860809396
:1057D000C1008091C10080688093C10080E090E0AA
:1057E0000E945404893009F008C54DE450E061E09E
:1057F00070E087EE95E00E948506892B09F4FDC4D0
:105800008AB18C618AB9209A8AB1806E8AB98091F6
:1058100081008F7E809381008091810088608093D9
:105820008100809180008C7F809380008091800037
:105830008F708093800080916E00887F80936E00CF
:1058400014BC15BC80916E00816080936E0087B19E
:10585000887F87B988B1876088B980916C0087603C
:1058600080936C00809168008260809368008EE174
:10587000E6E3F6E0DF011D928A95E9F781E0809387
:10588000360678949091240694FD80933706ADE80F
:10589000CA2EA6E0DA2EB3E06B2E809181018093B0
:1058A00080018FE3F60111928A95E9F760EB76E0CB
:1058B00080E00E94A81E811103C087E00E94C621DB
:1058C000239A259A0E94311E3B9A0E9428070E9423
:1058D0003D043D98459A0E9443260E94AF1B0E94BA
:1058E00032266AE376E084EA96E00E94E4111092A0
:1058F00036061092E5051092350610923806109281
:10590000390682E691E00E94B72180913706813006
:1059100099F48DEE93E00E94B72187EC93E00E940A
:10592000B7218AE793E00E94B72110E000E0E2E0AF
:10593000EE2EF4E07F2E21C0109237060E947E20CA
:10594000F4CFE92FF0E0E050FF4F80819F5F903867
:1059500009F490E0909380018F3FA9F08A30E1F440
:10596000E12FF0E0EB56FA4F10820E94C123F09035
:105970003606FF20A9F010E000E0909180018091B0
:1059800081019813DECF0E9484210E94C12380915F
:105990003606882391F381CF8D3009F004C4E0CF1F
:1059A00080919505811105C08FEE93E00E94B7218B
:1059B000E2CF843209F0ECC3F1E0F98B80919605D7
:1059C000833481F034F4882351F0843209F01AC111
:1059D00009C0873439F0883509F014C103C086E363
:1059E00092E0D7C0909197059111C6C3833409F412
:1059F000D3C01CF4843239F0C7C3873479F08835BA
:105A000009F4ECC0C1C3809137068871F82E19F0F3
:105A100078E0F72EB9C30E945522B6C384E392E022
:105A20000E94B72180918D06823091F038F488234E
:105A300061F08130A9F48EE292E00CC0833069F00D
:105A4000883071F484E292E005C081E392E002C004
:105A50008BE292E00E94B7210CC088E292E0FACF7C
:105A60008FE192E00E94B72180918D0682500E94C2
:105A7000AB218CE192E00E94B721809193068A5C71
:105A80000E94AB2180919106813049F028F082304C
:105A900051F48DE092E005C087E192E002C082E11E
:105AA00092E00E94B72180918F06811103C088E0A7
:105AB00092E002C083E092E00E94B72180919006BC
:105AC000811103C08EEF91E002C089EF91E00E9446
:105AD000B72180918E06813019F484EF91E002C0E5
